:020000040800F2
:1000000000040020C101000871C4000871C4000888
:1000100071C4000871C4000871C4000871C40008EC
:1000200071C4000871C4000871C40008F18A000896
:1000300071C4000871C4000871C4000871C40008CC
:1000400071C4000871C4000871C4000871C40008BC
:1000500071C4000871C4000871C4000871C40008AC
:1000600071C4000871C4000871C40008C19A000876
:10007000719A0008219A0008D19900089199000806
:1000800041990008F1980008219D000871C40008FA
:1000900071C4000871C4000871C4000871C400086C
:1000A00071C4000871C4000871C4000871C400085C
:1000B000F16F000871C4000871C40008019C0008B9
:1000C000019B000871C4000871C4000871C40008D5
:1000D00071C4000871C4000871C40008C16F000831
:1000E00071C4000871C4000871C4000871C400081C
:1000F00071C4000871C4000871C40008A198000808
:1001000071C4000871C4000871C4000871C40008FB
:1001100071C40008916F000871C4000881DD0008F7
:100120006198000811980008C197000871970008AD
:100130003197000871C4000871C4000871C4000838
:1001400071C4000871C4000871C40008617100081E
:10015000E1960008919600084196000871C40008D5
:1001600071C4000871C4000871C4000871C400089B
:1001700071C4000871C4000871C4000871C400088B
:1001800071C4000871C4000871C4000871C400087B
:1001900071C4000871C4000871C4000871C400086B
:1001A00071C4000871C4000871C4000871C400085B
:1001B00071C4000871C4000871C4000871C400084B
:1001C00072B6264880F3098825484EF60851CEF2CB
:1001D00000010860022080F31488BFF36F8F0CF0D9
:1001E00097F907F045FB4FF055301E491E4A9142E2
:1001F0003CBF41F8040BFAE71C49184A91423CBF46
:1002000041F8040BFAE71A491A4A1B4B9A423EBFBF
:1002100051F8040B42F8040BF8E700201749184A7C
:1002200091423CBF41F8040BFAE70CF029F90CF0BD
:1002300067F9144C144DAC4203DA54F8041B884798
:10024000F9E705F015FB114C114DAC4203DA54F8F7
:10025000041B8847F9E70CF04BB9000000080020A8
:10026000000000080000002000040020000400201E
:10027000241A0108000800200408002008080020B3
:1002800074B70120C0010008C0010008C0010008C7
:10029000C00100082DE9F04FC1F80CD0C3689D469D
:1002A000BDE8F08F0BF05CFF002383F31188284634
:1002B000A04700200CF06CF80BF062FF0BF028FD5B
:1002C0000BF04EFF00DFFEE781F0004102E000BFCF
:1002D00083F0004330B54FEA41044FEA430594EA06
:1002E000050F08BF90EA020F1FBF54EA000C55EA41
:1002F000020C7FEA645C7FEA655C00F0E2804FEA12
:100300005454D4EB5555B8BF6D420CDD2C4480EAF3
:10031000020281EA030382EA000083EA010180EA23
:10032000020281EA0303362D88BF30BD11F0004F71
:100330004FEA01314FF4801C4CEA113102D04042A7
:1003400061EB410113F0004F4FEA03334CEA1333E2
:1003500002D0524263EB430394EA050F00F0A780FA
:10036000A4F10104D5F1200E0DDB02FA0EFC22FAF5
:1003700005F2801841F1000103FA0EF2801843FAE9
:1003800005F359410EE0A5F120050EF1200E012ADA
:1003900003FA0EFC28BF4CF0020C43FA05F3C01818
:1003A00051EBE37101F0004507D54FF0000EDCF191
:1003B000000C7EEB00006EEB0101B1F5801F1BD33A
:1003C000B1F5001F0CD349085FEA30004FEA3C0C3E
:1003D00004F101044FEA445212F5800F80F09A8034
:1003E000BCF1004F08BF5FEA500C50F1000041EB38
:1003F000045141EA050130BD5FEA4C0C404141EB3C
:10040000010111F4801FA4F10104E9D191F0000F62
:1004100004BF01460020B1FA81F308BF2033A3F1E5
:100420000B03B3F120020CDA0C3208DD02F1140CDC
:10043000C2F10C0201FA0CF021FA02F10CE002F117
:100440001402D8BFC2F1200C01FA02F120FA0CFC10
:10045000DCBF41EA0C019040E41AA2BF01EB045159
:10046000294330BD6FEA04041F3C1CDA0C340EDC57
:1004700004F11404C4F1200220FA04F001FA02F39A
:1004800040EA030021FA04F345EA030130BDC4F158
:100490000C04C4F1200220FA02F001FA04F340EA4D
:1004A0000300294630BD21FA04F0294630BD94F0FE
:1004B000000F83F4801306BF81F480110134013DE5
:1004C0004EE77FEA645C18BF7FEA655C29D094EA56
:1004D000050F08BF90EA020F05D054EA000C04BFD4
:1004E0001946104630BD91EA030F1EBF00210020BF
:1004F00030BD5FEA545C05D14000494128BF41F05E
:10050000004130BD14F580043CBF01F5801130BDC1
:1005100001F0004545F0FE4141F470014FF000004C
:1005200030BD7FEA645C1ABF194610467FEA655CFD
:100530001CBF0B46024650EA013406BF52EA03359F
:1005400091EA030F41F4002130BD00BF90F0000F8D
:1005500004BF0021704730B54FF4806404F13204C9
:100560004FF000054FF0000150E700BF90F0000F82
:1005700004BF0021704730B54FF4806404F13204A9
:1005800010F0004548BF40424FF000013EE700BF79
:1005900042004FEAE2014FEA31014FEA02701FBF09
:1005A00012F07F4393F07F4F81F06051704792F0DB
:1005B000000F14BF93F07F4F704730B54FF4607455
:1005C00001F0004521F0004120E700BF50EA0102A0
:1005D00008BF704730B54FF000050AE050EA01024D
:1005E00008BF704730B511F0004502D5404261EBBD
:1005F00041014FF4806404F132045FEA915C3FF4FE
:10060000DCAE4FF003025FEADC0C18BF03325FEA96
:10061000DC0C18BF033202EBDC02C2F1200300FA4B
:1006200003FC20FA02F001FA03FE40EA0E0021FA70
:1006300002F11444C1E600BF70B54FF0FF0C4CF45A
:10064000E06C1CEA11541DBF1CEA135594EA0C0F10
:1006500095EA0C0F00F0DEF82C4481EA030621EA4B
:100660004C5123EA4C5350EA013518BF52EA033586
:1006700041F4801143F4801338D0A0FB02CE4FF038
:100680000005E1FB02E506F00042E0FB03E54FF068
:100690000006E1FB03569CF0000F18BF4EF0010E60
:1006A000A4F1FF04B6F5007F64F5407404D25FEA5C
:1006B0004E0E6D4146EB060642EAC62141EA55510F
:1006C0004FEAC52040EA5E504FEACE2EB4F1FD0C51
:1006D00088BFBCF5E06F1ED8BEF1004F08BF5FEACF
:1006E000500E50F1000041EB045170BD06F0004681
:1006F00046EA010140EA020081EA0301B4EB5C042E
:10070000C2BFD4EB0C0541EA045170BD41F4801125
:100710004FF0000E013C00F3AB8014F1360FDEBF4A
:10072000002001F0004170BDC4F10004203C35DA26
:100730000C341BDC04F11404C4F1200500FA05F3A9
:1007400020FA04F001FA05F240EA020001F000424A
:1007500021F0004110EBD37021FA04F642EB0601C0
:100760005EEA430E08BF20EAD37070BDC4F10C04EA
:10077000C4F1200500FA04F320FA05F001FA04F2AE
:1007800040EA020001F0004110EBD37041F100019A
:100790005EEA430E08BF20EAD37070BDC4F12005A5
:1007A00000FA05F24EEA020E20FA04F301FA05F20D
:1007B00043EA020321FA04F001F0004121FA04F2B5
:1007C00020EA020000EBD3705EEA430E08BF20EA85
:1007D000D37070BD94F0000F0FD101F000464000BF
:1007E00041EB010111F4801F08BF013CF7D041EA41
:1007F000060195F0000F18BF704703F00046520045
:1008000043EB030313F4801F08BF013DF7D043EA15
:100810000603704794EA0C0F0CEA135518BF95EACB
:100820000C0F0CD050EA410618BF52EA4306D1D152
:1008300081EA030101F000414FF0000070BD50EA71
:10084000410606BF1046194652EA430619D094EAFB
:100850000C0F02D150EA013613D195EA0C0F05D1E5
:1008600052EA03361CBF104619460AD181EA030139
:1008700001F0004141F0FE4141F470014FF00000F1
:1008800070BD41F0FE4141F4780170BD70B54FF08C
:10089000FF0C4CF4E06C1CEA11541DBF1CEA13550C
:1008A00094EA0C0F95EA0C0F00F0A7F8A4EB0504EE
:1008B00081EA030E52EA03354FEA013100F08880E5
:1008C0004FEA03334FF0805545EA131343EA1263AE
:1008D0004FEA022245EA111545EA10654FEA002663
:1008E0000EF000419D4208BF964244F1FD0404F51C
:1008F000407402D25B084FEA3202B61A65EB030578
:100900005B084FEA32024FF480104FF4002CB6EB34
:10091000020E75EB030E22BFB61A754640EA0C00B4
:100920005B084FEA3202B6EB020E75EB030E22BFF4
:10093000B61A754640EA5C005B084FEA3202B6EB35
:10094000020E75EB030E22BFB61A754640EA9C00F4
:100950005B084FEA3202B6EB020E75EB030E22BFC4
:10096000B61A754640EADC0055EA060E18D04FEA82
:10097000051545EA16754FEA06164FEAC30343EA22
:1009800052734FEAC2025FEA1C1CC0D111F4801FEF
:100990000BD141EA00014FF000004FF0004CB6E7E8
:1009A00011F4801F04BF01430020B4F1FD0C88BF87
:1009B000BCF5E06F3FF6AFAEB5EB030C04BFB6EB92
:1009C000020C5FEA500C50F1000041EB045170BD85
:1009D0000EF0004E4EEA113114EB5C04C2BFD4EBB2
:1009E0000C0541EA045170BD41F480114FF0000E36
:1009F000013C90E645EA060E8DE60CEA135594EAB2
:100A00000C0F08BF95EA0C0F3FF43BAF94EA0C0FB4
:100A10000AD150EA01347FF434AF95EA0C0F7FF429
:100A200025AF104619462CE795EA0C0F06D152EA7D
:100A300003353FF4FDAE1046194622E750EA410661
:100A400018BF52EA43067FF4C5AE50EA41047FF472
:100A50000DAF52EA43057FF4EBAE12E74A0011D224
:100A600012F5001211D20DD56FF47873B3EB625208
:100A70000ED44FEAC12343F0004343EA505323FA14
:100A800002F070474FF00000704750EA013002D189
:100A90004FF0FF3070474FF00000704780F000408B
:100AA00002E000BF81F0004142001FBF5FEA410346
:100AB00092EA030F7FEA226C7FEA236C6AD04FEA46
:100AC0001262D2EB1363C1BFD2184140484041408B
:100AD000B8BF5B42192B88BF704710F0004F40F43D
:100AE000000020F07F4018BF404211F0004F41F459
:100AF000000121F07F4118BF494292EA030F3FD025
:100B0000A2F1010241FA03FC10EB0C00C3F1200337
:100B100001FA03F100F0004302D5494260EB4000C6
:100B2000B0F5000F13D3B0F1807F06D340084FEA31
:100B3000310102F10102FE2A51D2B1F1004F40EB26
:100B4000C25008BF20F0010040EA0300704749008E
:100B500040EB000010F4000FA2F10102EDD1B0FA59
:100B600080FCACF1080CB2EB0C0200FA0CF0AABF4E
:100B700000EBC25052421843BCBFD04018437047EC
:100B800092F0000F81F4000106BF80F400000132F2
:100B9000013BB5E74FEA41037FEA226C18BF7FEAC9
:100BA000236C21D092EA030F04D092F0000F08BF0B
:100BB0000846704790EA010F1CBF0020704712F0F2
:100BC0007F4F04D1400028BF40F00040704712F131
:100BD00000723CBF00F50000704700F0004343F096
:100BE000FE4040F4000070477FEA226216BF0846CC
:100BF0007FEA23630146420206BF5FEA412390EA8F
:100C0000010F40F4800070474FF0000304E000BF84
:100C100010F0004348BF40425FEA000C08BF704735
:100C200043F0964301464FF000001CE050EA0102F9
:100C300008BF70474FF000030AE000BF50EA01020E
:100C400008BF704711F0004302D5404261EB4101FB
:100C50005FEA010C02BF84460146002043F0B64320
:100C600008BFA3F18053A3F50003BCFA8CF2083A45
:100C7000A3EBC25310DB01FA02FC634400FA02FC4E
:100C8000C2F12002BCF1004F20FA02F243EB020055
:100C900008BF20F00100704702F1200201FA02FCB7
:100CA000C2F1200250EA4C0021FA02F243EB0200AA
:100CB00008BF20EADC7070474FF0FF0C1CEAD052EE
:100CC0001EBF1CEAD15392EA0C0F93EA0C0F6FD0AF
:100CD0001A4480EA010C400218BF5FEA41211ED08D
:100CE0004FF0006343EA501043EA5111A0FB013179
:100CF0000CF00040B1F5000F3EBF490041EAD3714E
:100D00005B0040EA010062F17F02FD2A1DD8B3F1C9
:100D1000004F40EBC25008BF20F00100704790F038
:100D2000000F0CF0004C08BF49024CEA502040EA8A
:100D300051207F3AC2BFD2F1FF0340EAC250704750
:100D400040F400004FF00003013A5DDC12F1190F8E
:100D5000DCBF00F000407047C2F10002410021FA00
:100D600002F1C2F1200200FA02FC5FEA310040F118
:100D7000000053EA4C0308BF20EADC70704792F091
:100D8000000F00F0004C02BF400010F4000F013AC9
:100D9000F9D040EA0C0093F0000F01F0004C02BFC4
:100DA000490011F4000F013BF9D041EA0C018FE733
:100DB0000CEAD15392EA0C0F18BF93EA0C0F0AD039
:100DC00030F0004C18BF31F0004CD8D180EA01005F
:100DD00000F00040704790F0000F17BF90F0004FF8
:100DE000084691F0000F91F0004F14D092EA0C0FDA
:100DF00001D142020FD193EA0C0F03D14B0218BF6D
:100E0000084608D180EA010000F0004040F0FE40B2
:100E100040F40000704740F0FE4040F4400070474E
:100E20004FF0FF0C1CEAD0521EBF1CEAD15392EACD
:100E30000C0F93EA0C0F69D0A2EB030280EA010CBD
:100E400049024FEA402037D04FF0805343EA111156
:100E500043EA10130CF000408B4238BF5B0042F1B4
:100E60007D024FF4000C8B4224BF5B1A40EA0C0059
:100E7000B3EB510F24BFA3EB510340EA5C00B3EB8B
:100E8000910F24BFA3EB910340EA9C00B3EBD10F79
:100E900024BFA3EBD10340EADC001B0118BF5FEACB
:100EA0001C1CE0D1FD2A3FF650AF8B4240EBC250F4
:100EB00008BF20F0010070470CF0004C4CEA5020B5
:100EC0007F32C2BFD2F1FF0340EAC250704740F404
:100ED00000004FF00003013A37E792F0000F00F0F6
:100EE000004C02BF400010F4000F013AF9D040EA74
:100EF0000C0093F0000F01F0004C02BF490011F408
:100F0000000F013BF9D041EA0C0195E70CEAD153FF
:100F100092EA0C0F08D142027FF47DAF93EA0C0FE6
:100F20007FF470AF084676E793EA0C0F04D14B02CA
:100F30003FF44CAF08466EE730F0004C18BF31F07C
:100F4000004CCAD130F000427FF45CAF31F0004376
:100F50007FF43CAF5FE700BF42000ED2B2F1FE4F1C
:100F60000BD34FF09E03B3EB126209D44FEA002378
:100F700043F0004323FA02F070474FF0000070473F
:100F800012F1610F01D1420202D14FF0FF307047E0
:100F90004FF00000704700BF7BB972B90029BEBF97
:100FA00000204FF0004106E008BF00281CBF6FF092
:100FB00000414FF0FF3000F0C9B9ADF1080C6DE908
:100FC00004CE002909DB002B1ADB00F04DF8DDF818
:100FD00004E0DDE9022304B07047404261EB4101C7
:100FE000002B1BDB00F040F8DDF804E0DDE9022314
:100FF00004B0404261EB4101524263EB430370474E
:10100000524263EB430300F02FF8DDF804E0DDE922
:10101000022304B0404261EB41017047524263EB4E
:10102000430300F021F8DDF804E0DDE9022304B019
:10103000524263EB4303704753B94AB9002908BFD2
:1010400000281CBF4FF0FF314FF0FF3000F07EB999
:10105000ADF1080C6DE904CE00F006F8DDF804E00F
:10106000DDE9022304B070472DE9F0478C460E46B7
:101070000446089D002B50D18A4217466CD9B2FA1B
:1010800082FEBEF1000F0BD0CEF1200420FA04F452
:1010900001FA0EF644EA060C02FA0EF700FA0EF414
:1010A0004FEA1749220CBCFBF9F01FFA87F809FB3D
:1010B00010C642EA064600FB08F3B34209D9F61906
:1010C00000F1FF3280F02281B34240F21F810238EA
:1010D0003E44F61AA2B2B6FBF9F309FB136642EAE4
:1010E000064403FB08F8A04509D9E41903F1FF32CF
:1010F00080F00A81A04540F20781023B3C44C8EBE6
:10110000040443EA00400021002D62D024FA0EF4CA
:1011100000232C606B60BDE8F0878B4207D9002D5F
:1011200055D0002185E841000846BDE8F087B3FAB4
:1011300083F1002940F09080B34202D3824200F252
:10114000F880841A66EB03060120B446002D40D0D7
:1011500085E81010BDE8F08712B90127B7FBF2F758
:10116000B7FA87FEBEF1000F35D1F31B4FEA1748DF
:101170001FFA87FC0121B3FBF8F0220C08FB1036A4
:1011800042EA06460CFB00F3B34207D9F61900F118
:10119000FF3202D2B34200F2CE801046F61AA2B25B
:1011A000B6FBF8F308FB136642EA06440CFB03FCAB
:1011B000A44507D9E41903F1FF3202D2A44500F295
:1011C000B5801346CCEB040443EA00409CE7294673
:1011D0002846BDE8F087CEF1200106FA0EF307FAA3
:1011E0000EF720FA01F94FEA1748CE4049EA030901
:1011F000B6FBF8FA4FEA194408FB1A661FFA87FC97
:1012000044EA06430AFB0CF29A4200FA0EF40AD9A9
:10121000DB190AF1FF3180F087809A4240F2848026
:10122000AAF1020A3B449B1A1FFA89F9B3FBF8F1B1
:1012300008FB113349EA034301FB0CF69E4207D930
:10124000DB1901F1FF326BD29E4269D902393B446E
:101250009B1B41EA0A418EE7C1F1200E22FA0EF4EF
:101260008B40234320FA0EF706FA01F44FEA134CA1
:1012700026FA0EF63C43B6FBFCF9270C0CFB19666C
:101280001FFA83F847EA064609FB08F7B74202FA55
:1012900001F200FA01FA08D9F61809F1FF3041D23B
:1012A000B7423FD9A9F102091E44F61BA0B2B6FB12
:1012B000FCF40CFB146640EA064704FB08F8B8454A
:1012C00007D9FF1804F1FF3028D2B84526D9023CCF
:1012D0001F4444EA0940C8EB0707A0FB02894F45B9
:1012E00044464E4614D329D065B3BAEB040367EBEA
:1012F000060707FA0EFECB40CF404EEA030385E80F
:1013000088000021BDE8F0871346F8E61046E0E6C5
:10131000B8EB020469EB03060138E5E70446D8E7B9
:10132000114695E78146C0E78A467CE7023B3C448C
:1013300048E708460AE702383E442FE7C245E7D3AC
:101340003E46D1E72946BDE8F08700BF704700BFA1
:10135000844641EA000313F003036DD1403A41D3C0
:1013600051F8043B40F8043B51F8043B40F8043B7F
:1013700051F8043B40F8043B51F8043B40F8043B6F
:1013800051F8043B40F8043B51F8043B40F8043B5F
:1013900051F8043B40F8043B51F8043B40F8043B4F
:1013A00051F8043B40F8043B51F8043B40F8043B3F
:1013B00051F8043B40F8043B51F8043B40F8043B2F
:1013C00051F8043B40F8043B51F8043B40F8043B1F
:1013D00051F8043B40F8043B51F8043B40F8043B0F
:1013E000403ABDD2303211D351F8043B40F8043BAF
:1013F00051F8043B40F8043B51F8043B40F8043BEF
:1014000051F8043B40F8043B103AEDD20C3205D3BE
:1014100051F8043B40F8043B043AF9D2043208D0B6
:10142000D2071CBF11F8013B00F8013B01D30B8828
:1014300003806046704700BF082A13D38B078DD006
:1014400010F003038AD0C3F10403D21ADB071CBFD8
:1014500011F8013B00F8013B80D331F8023B20F842
:10146000023B7BE7043AD9D3013A11F8013B00F87B
:10147000013BF9D20B7803704B7843708B78837003
:1014800060467047000000000000000000000000FF
:10149000000000000000000000000000000000004C
:1014A000A2EB0300704700BF02780B78012A28BF27
:1014B0009A42F5D16DE9044540EA0104CDE902679D
:1014C0006FF0000C4FEA447212B380EA010414F08A
:1014D000070F6AD100F0070420F0070004F00305AD
:1014E00021F007014FEAC505F0E8042314F0040FCA
:1014F000F1E804670CFA05F462EA040266EA0406FD
:101500000AD063EA0403624667EA0407664603E01A
:10151000F0E80423F1E8046782FA4CF582EA060455
:10152000A4FA8CF46CBB83FA4CF583EA0705A5FAA0
:101530008CF595B950E9022351E9026782FA4CF51E
:1015400082EA0604A4FA8CF483FA4CF583EA0705D0
:10155000A5FA8CF52543DBD09CB92DBAB5FA85F4F4
:1015600024F0070427FA04F1DDE9026723FA04F303
:1015700003F0FF0001F0FF01FDE80445A0EB0100CE
:10158000704724BAB4FA84F424F0070426FA04F16C
:10159000DDE9026722FA04F202F0FF0001F0FF0128
:1015A000FDE80445A0EB0100704714F0030F3CD1A7
:1015B00010F0030428D150F8082B51F8083B82FAA8
:1015C0004CF582EA0305A5FA8CF55DB950F8042CB8
:1015D00051F8043C82FA4CF582EA0305A5FA8CF531
:1015E000002DE8D02DBAB5FA85F424F0070423FACB
:1015F00004F122FA04F202F0FF0001F0FF01FDE81D
:101600000445A0EB010070474FEAC40420F003003A
:1016100050F8082B21F0030151F8083B0CFA04F4B0
:1016200062EA040263EA0403C9E710F003041AD073
:10163000A1EB040120F00300E40750F8042B06D0CE
:101640000FD28B785FFAA2F4E41A06D12BB1CB78D3
:101650005FFAB2F4E41A00D11BB920465DF8104BD2
:10166000704701F1040150F8042BCC0721F003016D
:1016700051F8043B48D824D222F07F4482FA4CF53A
:1016800094EA1325A5FA8CF50AD165B951F8043B03
:1016900084EA0204B4EB036F0ED150F8042BEBE79D
:1016A0004FEA132355E035F07F454DD10878FDE82A
:1016B0000445C0F1000070474FEA126203F0FF03D7
:1016C00047E002EA1C4482FA4CF594EA1345A5FA75
:1016D0008CF50AD165B951F8043B84EA0204B4EBF5
:1016E000034F0CD150F8042BEBE74FEA134330E0E3
:1016F00015EA1C4528D10B884FEA124229E04FEA2F
:10170000124203EA1C4324E002F0FF0482FA4CF583
:1017100094EA1365A5FA8CF50AD165B951F8043B32
:1017200084EA0204B4EB032F09D150F8042BEBE751
:101730004FEA13630DE015F0FF0F05D10B684FEA78
:10174000122223F07F4304E04FF00000FDE804453F
:10175000704712BA1BBA82FA4CF482EA0304A4FA64
:101760008CF5B5FA85F402FA04F203FA04F34FEAB1
:101770001260FDE80445A0EB136070470000000014
:1017800090F800F06DE9024520F007016FF0000CC1
:1017900010F0070491F820F040F049804FF0000469
:1017A0006FF00700D1E9002391F840F000F1080044
:1017B00082FA4CF2A4FA8CF283FA4CF3A2FA8CF37C
:1017C0004BBBD1E9022382FA4CF200F10800A4FAE3
:1017D0008CF283FA4CF3A2FA8CF3E3B9D1E9042337
:1017E00082FA4CF200F10800A4FA8CF283FA4CF36E
:1017F000A2FA8CF37BB9D1E9062301F1200182FA28
:101800004CF200F10800A4FA8CF283FA4CF3A2FA2D
:101810008CF3002BC6D0002A04BF04301A4612BA3B
:10182000B2FA82F2FDE8024500EBD2007047D1E93E
:10183000002304F00305C4F100004FEAC50514F0CD
:10184000040F91F840F00CFA05F562EA05021CBF9E
:1018500063EA050362464FF00004A9E700000000B8
:101860002DE9F04FADF68C1D16460DF27C4B1D4652
:101870000892039004915846002140F20C5206F55C
:1018800086740CF015FF8BF81050234606F589710D
:101890001A460133107810B18B421A46F8D1531E04
:1018A0009C424FF0000303D91AE00B18944217D062
:1018B00012F8011D03EB8303A1F14100DB0019289D
:1018C000A1F16105A3F13300EFD9192DA1F1300089
:1018D000A3F1530500F29580944201EB0503E7D193
:1018E0000DF24A742046CD25DB2741224D49CBF825
:1018F0000C300DF28B76ABF80470ABF80250FFF7AA
:1019000027FDCBF80045484C484930464122FFF7B7
:101910001FFD0FCCCBF804650DF2CC760FC694E812
:101920000F0007C6424C33700FCCCDF8E907CDF855
:10193000ED17CDF8F12707CC0DF2CC77CDF8F537C0
:10194000CDF8F9070DF60603CDF8FD17CDF80128FF
:10195000CBF8F074227837498DF805280DF2E97636
:101960001846B322CBF8F464FFF7F2FC0DF6B90485
:101970000346B3223049CBF8F8342046FFF7E8FCA1
:1019800040F222260DF15F0314A84FF4807200216B
:10199000CBF83830CBF83C50CBF8FC44CBF83400D3
:1019A000ABF808650CF084FE0022114658460AF098
:1019B00087FF0023059302934FF080429BF8493044
:1019C0000899526AC1F8B021052B00F05182DBF86A
:1019D0003C40002C01F00380DBF82430002B00F0A9
:1019E0002D82DBF82020DBF82860511C013BCBF86E
:1019F00020101178CBF8243046B1013ECBF8286096
:101A0000ECE709289CBF2F3B5B184FE79BF8492068
:101A1000042AE3D8DFE812F0BA01F60180011200CF
:101A2000120000BFA4E90008D0F00008E8E90008AF
:101A3000F0F000083CE80008F0E80008FF2904BFC7
:101A40000123CBF82830DBF82C009BF8303041EA3A
:101A500000210833032ACBF82C108BF830304FF0DC
:101A6000010500F0F084042A00F088859BF85940B5
:101A70003F2C17D99BF858309BF857200133DBB225
:101A8000911C8B428BF8583000F0F58593422ABFA9
:101A9000013300239B1A8BF8563000238BF8593002
:101AA0008BF87530DBF83C30002B40F0C7849BF896
:101AB0001C30FF2B4FF0030400F0A186BBF802207E
:101AC0009342C0F09C869B1AFF218BF81C308E46F7
:101AD0000B46DBF83420552010709BF80020DBF813
:101AE000340066324270DBF834209BF80F009070AF
:101AF000DBF83420BBF80E00D070DBF80C20DBF8EC
:101B00003400120A0271DBF83420DBF80C0050714B
:101B1000DBF834209BF810009071BBF81220DBF842
:101B20003400120AC271DBF83420BBF812001072C4
:101B3000BBF80620DBF8340012094272BBF808201B
:101B4000DBF8340012098272DBF834000022C27222
:101B5000DBF83450042C95F90B7014BF10460420A8
:101B60003843E872DBF834709BF81450F87A05F0CB
:101B700003052843F872DBF834000373DBF83430D4
:101B800083F80DE0DBF834309973DBF83C0080B16A
:101B9000DBF8381013460A1803EB8303C3EBC303C7
:101BA000C3EBC3032D3303F0FF0301F8013B914264
:101BB000F2D1BBF80450DBF83480002D01F00E8424
:101BC000474608EB050E4FF0FF3017F8013F434042
:101BD000DBB2082213F0010F4FEA530118BF7C4B10
:101BE00002F1FF3214BF4B405B0812F0FF02F1D14B
:101BF000774583EA1020E8D1C0434FEA106CC0F368
:101C00000741C0F3072EC0B2EFB27A1CD2B2BB1CA0
:101C100008F802C0DBB2DBF83420D154FA1CDBF840
:101C20003410D2B23B1D01F802E0DBB2DBF8342005
:101C3000D0549BF80010002901F05582BBF81230F7
:101C4000042C03F10103ABF8123001F04782089B2A
:101C500093F82430002B01F09981012B41F09381FE
:101C6000089CE36A9847002841F08182A36A08989B
:101C7000CDF864340DF5187890F8302090F82010E5
:101C800088F80812002A01F06881022A40F2508781
:101C900050480AF085FA4FF080434FF47A745A6A3C
:101CA000586A4D4B4D4904FB00F0A3FB00304C4BF0
:101CB000400BA3FB0053484D9B09A5FB025204FBBC
:101CC0001303520B474808F0E3FC474A474945488D
:101CD00008F0DEFC5D23464A4649424808F0D8FC3D
:101CE0004549404808F0D4FC44493E4808F0D0FC3F
:101CF00043493C4808F0CCFC364807F041FC5D21E4
:101D00003B480AF03DFE089B986B002841F0CB80D1
:101D1000059B013305934FE6BBF85430DBF85020A8
:101D2000581CABF85400D154BBF85430BBF84C20CD
:101D30009A427FF451AEBBF84A20DBF85040A2F53E
:101D40007F42C03A1D461D2A00F24481DFE812F0AE
:101D50008202420142014201340242014201420137
:101D6000420142014201420142014201420142015B
:101D7000420142014201420142014201420142014B
:101D8000420142017C0146014201FD00BBF84A20AC
:101D900041EA022189B24FF601729142ABF84A1032
:101DA00000F03A8501F1300292B2092A40F23485FE
:101DB00001F1400292B23E2A3FF610AE002001210E
:101DC0001022ABF84C008BF849108BF8802005E608
:101DD0002083B8ED20B701205917B7D150EA000889
:101DE000D34D621028AC01205CEA000864EA0008C8
:101DF00074EA00087CEA0008E0F10008E0ED000861
:101E0000A8EA0008BBF84C009BF8802041EA0021BA
:101E1000083A89B2D2B2ABF84C108BF88020002A75
:101E20007FF4DCAD02395846ABF84C100AF0E8FDFF
:101E300000283FF4D1AD012840F0FA84049C0299B7
:101E40000398A4F180038B4200EB010200F27D8530
:101E5000631ADBB219440291002B00F02C869BF828
:101E60004910CBF820200529CBF824307FF4AFAD02
:101E70004FF080476448654E654C0AF091F97A6AE4
:101E80007B6A644964484FF47A7505FB03F3A6FB4B
:101E900003E35B0BA4FB03CE4FEA9E1EA6FB02C22C
:101EA00005FB1E33520B08F0F3FB5C4A5C495A48B1
:101EB00008F0EEFB35235B4A5B49574808F0E8FB26
:101EC0005A49554808F0E4FB5949534808F0E0FBEB
:101ED0005849514808F0DCFB4B4807F051FB4A4891
:101EE0000AF05EF97A6A7B6A4A494B4805FB03F3BC
:101EF000A6FB03735B0BA4FB0374A409A6FB02629D
:101F000005FB1433520B08F0C3FB444A44494248D2
:101F100008F0BEFB6723434A43493F4808F0B8FB3B
:101F200042493D4808F0B4FBBDF8142042493A4804
:101F300008F0AEFB3F49384808F0AAFB324807F0EA
:101F40001FFB0DF68C1DBDE8F08F227863782E48BC
:101F500003EB0223ABF876300AF022F94FF080430E
:101F60004FF47A745A6A586A284B2A4904FB00F0E5
:101F7000A3FB0030264B400BA3FB0053234D9B09D2
:101F8000A5FB025204FB1303520B234808F080FB0D
:101F90002A4A2349204808F07BFB40F23B33284A79
:101FA00021491D4808F074FB20491B4808F070FBCC
:101FB000BBF876202349184808F06AFB1D491648EB
:101FC00008F066FB104807F0DBFA40F23B311C4892
:101FD0000AF0D6FC00238BF84930FDE4BBF8CC2294
:101FE0001A44ABF8CC22002BF4D0234406E0012A9B
:101FF00001D1CBF8C84241349C42EBD02278002A70
:10200000F5D1CBF8C442F6E720B701205917B7D174
:10201000D34D621050EA000828AC0120DCF1000822
:1020200064EA000874EA00087CEA0008E0F10008AD
:1020300018EE0008A8EA00083CEE00085CEA000878
:10204000BBEA000888ED00084FF080457148724FE8
:10205000DFF8CC810AF0A4F86A6A6B6A6F494FF422
:102060007A76384606FB03F3A0FB03036C485B0B50
:10207000A0FB030E3846A0FB02024FEA9E1006FBAF
:102080001033520B674808F003FB674A67496548FD
:1020900008F0FEFA40F2E723654A6649614808F015
:1020A000F7FA65495F4808F0F3FA227863495D481A
:1020B00008F0EEFA62495B4808F0EAFA554807F082
:1020C0005FFA2378032B00F06B8752480AF068F818
:1020D0006A6A6B6A5149534806FB03F3A7FB034343
:1020E0005B0BA8FB0354A409A7FB025206FB1433A5
:1020F000520B08F0CDFA534A4C494A4808F0C8FA46
:102100004FF43B734A4A4B49464808F0C1FA4A49E2
:10211000444808F0BDFA4C49424808F0B9FA484929
:10212000404808F0B5FA3B4807F02AFA4FF43B71F3
:102130003F480AF025FCFF2004463648364F0AF097
:102140002FF84FF080434FF47A765A6A5D6A344B29
:102150003249344806FB05F5A7FB05E56D0BA3FBEB
:1021600005E3A7FB02729B0906FB1353520B08F011
:102170008FFA344A2D492B4808F08AFA3823334A1B
:102180002C49284808F084FA2B49264808F080FAA0
:1021900022462F49234808F07BFA2949214808F0B4
:1021A00077FA1C4807F0ECF9382128480AF0E8FBD8
:1021B0000DF68C1DBDE8F08FBBF8CC221A44ABF8AD
:1021C000CC22002B3FF406AF2378112B0CD8DFE88C
:1021D00003F01E1B0B0B0B0B0B0B0B0B0B0B0B0B4F
:1021E0000B0B1809CBF8C042234604F11000112252
:1021F00013F8011F83420A44FAD1AD1A1444E3D103
:10220000E8E6CBF8BC42EFE7CBF8B842ECE7CBF816
:10221000B442E9E720B701205917B7D150EA0008C6
:10222000D34D621028AC0120DCF1000864EA0008FC
:10223000BBEA00087CEA0008E0F10008F8EA0008C0
:10224000A8EA00085CEA00083CEB000874EA000811
:10225000ACED0008E2782379B748DFF81883DFF89F
:10226000E09243EA0223ABF806306278A3784FF09D
:10227000804643EA0223ABF8083009F091FF726A06
:10228000736AAE494FF47A77404607FB03F3A0FB2D
:102290000303AB485B0BA0FB030E4046A0FB02020E
:1022A0004FEA9E1007FB1033520BA64808F0F0F9D6
:1022B000A54AA649A34808F0EBF940F28F23A44AA7
:1022C000A449A04808F0E4F9A3499E4808F0E0F9C1
:1022D0002278A2499B4808F0DBF9A149994808F007
:1022E000D7F9954807F04CF9934809F059FF726AFD
:1022F000736A9249404607FB03F3A0FB030390482F
:102300005B0BA0FB030E4046A0FB02024FEA9E10AF
:1023100007FB1033520B8B4808F0BAF98A4A8B49F5
:10232000884808F0B5F94FF42473894A89498548EB
:1023300008F0AEF98849834808F0AAF9BBF80830DC
:10234000BBF8062087497F4808F0A2F984497D48F8
:1023500008F09EF9784807F013F9774809F020FF54
:10236000726A736A7549404607FB03F3A0FB0303D7
:1023700073485B0BA0FB030E4046A0FB02024FEA32
:102380009E1007FB1033520B6E4808F081F96E4A1D
:102390006E496C4808F07CF940F291236C4A6D4913
:1023A000684808F075F96C49664808F071F9627977
:1023B0006D49644808F06CF96949624808F068F9A9
:1023C0005D4807F0DDF82378082B00F0D3865A48E3
:1023D00009F0E6FE726A736A58495A4807FB03F32C
:1023E000A8FB03435B0BA9FB0354A409A8FB0252FF
:1023F00007FB1433520B08F04BF95C4A5349514820
:1024000008F046F940F29623514A52494D4808F0E7
:102410003FF951494B4808F03BF95549494808F004
:1024200037F94F49474808F033F9434807F0A8F80F
:1024300040F2962146480AF0A3FA7CE69BF8492030
:10244000032A7FF410AB9BF859409BF856A09BF8E9
:1024500030E0DBF82C80221C18BF01225200BAF1B8
:10246000000F18BF01320BEB82020023D2F8B492A6
:10247000012709F11102CC4677453FF6ADAA1CF8B9
:10248000011FA1B1CCEB0E00484428FA00F08342B2
:1024900000F01F810139C9B20131114402E08342C9
:1024A00000F01781013201338A429BB2F7D1013724
:1024B000FFB25B00112F9BB2DED11F482D4E09F0F9
:1024C0006FFE4FF080434FF47A755A6A5C6A1C4B7A
:1024D0001A491C4805FB04F4A6FB0474640BA3FB17
:1024E0000473A6FB02629B0905FB1343520B08F021
:1024F000CFF81E4A1549134808F0CAF84FF47C7308
:10250000134A14490F4808F0C3F813490D4808F05E
:10251000BFF8FF2218490B4808F0BAF810490948DB
:1025200008F0B6F8044807F02BF84FF47C7108481F
:102530000AF026FAFFE500BF20B7012050EA0008A4
:10254000D34D621028AC0120DCF1000864EA0008D9
:10255000BBEA00087CEA0008E0F10008C4EA0008D1
:10256000A8EA0008DCEA0008F8EA00085CEA0008CB
:1025700010EB00085917B7D150EE00089BF8302037
:102580009BF880309A42FFF427AADBF82C109BF8C6
:102590005900D21A05FA03F321FA02F7013BB7EB0F
:1025A000630FDCBF5F407F42002840F0CC80BBF867
:1025B0001630DBF87C209A4200F076819BF8783068
:1025C000012B9BF8563000F0C6811A1C18BF01225F
:1025D00002F1B0010BEB810102F5A07248685BF8D3
:1025E0002240417894F801C003F116020BEB820EF1
:1025F0008C45DEF804E018BF4F430BEB82027744B2
:1026000057606278417891420DD07F0097FBF2F7D6
:10261000F90705D5002FD4BF4FF0FF320122174430
:1026200007EBD7777F101A3300215BF82320584639
:10263000BA1A0AF08DFA9BF856109BF859009BF8CD
:1026400030209BF880301A31441C4BF82170DBF8A5
:102650002C10D21AD3B205FA03F2013A0A40E4B2BE
:1026600003218BF83030CBF82C208BF859408BF8B5
:102670004910FFF7FDB9BBF81630BBF8182001333D
:102680009BB200219A42ABF816308BF8581040F2FA
:10269000AC809BF87820002A40F0F280BBF81A202A
:1026A0004FF6FF739A4200F0B081BBF8763053B119
:1026B000BBF8161039B1B1FBF3F203FB12139BB256
:1026C000002B3FF488AC9BF858309BF85720FFF75D
:1026D000DDB91278002C40F0AF80002A40F0DE8097
:1026E000BBF81630DBF87C209A4240F052819BF810
:1026F000583023B19BF857209A4200F24A819BF848
:102700007810002940F0C6810AF11A0A58465BF891
:102710002A200AF01DFA9BF859409BF830E0DBF8BC
:102720002C800134E4B28BF85940C7EB0E07FFB29E
:1027300005FA07F3013B03EA08038BF83070CBF886
:102740002C30FFF795B99BF85630003318BF0123A2
:1027500003F1B0040BEB840403F5A073D4F804C0B8
:102760005BF823E0441C1CF804301EF804E07345B9
:1027700010D007FB03F35B0093FBFEF717F0010F8C
:1027800005D0002FD4BF4FF0FF3301231F4407EBC8
:10279000D7777F10002F67D09BF875109BF87430A7
:1027A0001944C9B20F298BF875100CD90F210022DA
:1027B00058460AF0CDF99BF875101039C9B20F29A7
:1027C0008BF87510F2D83A4658460AF0C1F99BF8D2
:1027D00080309BF830209BF85900DBF82C10D21A7F
:1027E0000023441C8BF8753034E758460AF0B8F8DB
:1027F0009BF81C30FF2B4FF004047FF45FA9BBF85B
:102800001A104FF6FF724FEA112EABF81A20C9B218
:102810008BF81C20FFF75DB900235846ABF84C300D
:102820000AF0EEF800283FF4D7A801283FF406ABE1
:1028300004283FF41DAB7FE400238BF87430002A9A
:1028400000F0AD80F02A00F0158113091C44E4B2B9
:1028500002F00F0204218BF859408BF874308BF88A
:1028600080208BF8491060E73E2800F2A6809BF894
:1028700075009BF87430034401338BF87530E9E63A
:10288000012A7FF412AFDBF87C2093427FF40DAF76
:1028900000238BF83030CBF82C3006E704238BF87C
:1028A00080208BF8493040E79BF8583023B19BF8E3
:1028B00057209A423FF682AE9BF87830002B40F0CA
:1028C000BF809BF856100B1C18BF012303F1B00208
:1028D0000BEB820203F5A07354685BF823E0627887
:1028E0009EF801C001F116000BEB800394455B6874
:1028F00018BF57430BEB80003B4443609EF8012018
:10290000607890420DD05B0093FBF2F3D80705D5B9
:10291000002BD4BF4FF0FF320122134403EBD373DB
:102920005B1001F11A001A464BF82030002158467E
:102930000AF00EF99BF859009BF830209BF8803084
:10294000DBF82C10441CD21A84E6029B80330293DD
:102950008023FFF784BA1A1C18BF012202F1B001CC
:102960000BEB810102F5A07248685BF822104278F7
:10297000497816330BEB83009142446814BF7A43C5
:102980003A460BEB8303144400213A4658465C60F8
:10299000CEE70022114658460AF0DAF8BBE61146A7
:1029A00058460AF0D5F84FF040038BF859309BF8A1
:1029B00030E0DBF82C804024B7E63A4639465846EA
:1029C0000AF0C6F89BF859009BF830209BF880303D
:1029D0008BF87570441CD21ADBF82C103AE6DBF841
:1029E0003400BBF80230CBF83C30214600F10F0335
:1029F0004FF48072CBF838300BF05AFE2246214655
:102A0000584609F05DFFFEF7E7BF584609F0A8FFFA
:102A1000DBF83C209BF802309BF878109B1A0129C8
:102A2000BBF816208BF81C30CBF87C20ABF81A20B2
:102A30007FF43BAE00238BF83030CBF82C3034E6FB
:102A40009BF856300BEB83030021DA6D5846BA1A17
:102A50000AF07EF89BF856109BF859009BF830203E
:102A60009BF880300BEB8101441CCF65D21ADBF858
:102A70002C10EFE51A460F2158460AF069F89BF82A
:102A800059409BF830E0DBF82C801034E4B28BF82E
:102A900059404AE60BEB8A0A0021DAF85C205846D6
:102AA00052420AF055F89BF8563016330BEB83036D
:102AB00000225A602FE69F489F4E09F071FB4FF0AD
:102AC00080434FF47A755A6A5C6A9C4B9C499D48D6
:102AD00005FB04F4A6FB0474640BA3FB0473A6FBC0
:102AE00002629B0905FB1343520B07F0D1FD964A86
:102AF0009649944807F0CCFD2D23954A9549914875
:102B000007F0C6FD94498F4807F0C2FD93498D48F0
:102B100007F0BEFD92498B4807F0BAFD854806F0E4
:102B20002FFD2D218A4809F02BFF0124FFF705BB5B
:102B3000012A14BF022304231C46099300F1500309
:102B40000DF24F10C8F81432C8F8183288F809424C
:102B500003460DF24F21002203F8012F8B42FBD1D7
:102B60000DF25E22002300F8013F8242FBD10027D4
:102B700000240025BC46CDF82C80DFF8F0910A96A1
:102B80000DF151020DF5A87A0DF5967E2746A8465F
:102B90002AE0610B582B4FEA553041EAC54140F21B
:102BA000BC80053F0C46054648F1FF38A3FB0901F0
:102BB0005E1A0696A9FB0360069E01EB56011E1ADB
:102BC00000EB560089095B2606FB11318009654E32
:102BD0000CF10103715C305C0AF80C1072450AF8C4
:102BE00003000CF1020C14D017F1080012F8013B9D
:102BF00048F10001BB40002944EA030408BF0E2845
:102C000045EAE375C4F30C03C3D272450746884610
:102C1000EAD1424639460AEB0C030A9E0A93CDE9F3
:102C2000061213460A4613436746DDF82C801CD073
:102C30005B22002320462946FEF7FEF9DFF82491A7
:102C400019F802300AF80730DDE90623002B08BF27
:102C5000082AC0F07F835B22002320462946FEF726
:102C6000EBF90A9A19F8003053705046FEF788FDC8
:102C70004FF6FF72ADF84C20089ACDF8448000233F
:102C80000446ADF8483009988DF840301346583363
:102C900092F8689009934FF40071B2F87C308DF887
:102CA0004E006C320228ADF84A10069200F04783BD
:102CB0002D4D03EB430385FB0325DB17C3EBE50534
:102CC000ADB2002D54D000231F464FF4007E4FF0CC
:102CD000010C082101E0BDF84AE003F00702B3EB64
:102CE000CE0F4FEAD3000CFA02F20DDA119B13F863
:102CF00000E02EEA02021A54BDF8483001339BB2BC
:102D00000139ADF84830E6D10137FFB2AF422FD2DA
:102D1000BDF84830BDF84AE0DBE7A10B41EA854148
:102D2000063F4FEA9530C4F30D0348F1FF380C46D7
:102D300005463BE720B701205917B7D1D34D6210A4
:102D400050EA000828AC01205CEA000864EA0008A8
:102D500074EA00087CEA0008E0F1000888EA00084C
:102D6000A8EA000874EF000867666666698116685D
:102D700010A809F0F5FC10A809F0F2FC10A809F061
:102D8000EFFC10A809F0ECFC00231A46814910A8BA
:102D900009F066FD089B099993F86C30B3FA83F348
:102DA0004A465B0910A8002509F05AFD0DF13009CB
:102DB0002B4609940699EAB2114411F8011C002926
:102DC0007FD1002A7DD0032110A8099C724F09F001
:102DD000F7FC7B25F02110A809F0F2FC294610A889
:102DE00009F0EEFC17F8011F0029F8D10D4610A8D4
:102DF000492109F0E5FC54B12B4601351AF80310BE
:102E0000ADB210A809F0DCFCAC422B46F5D8BDF8F9
:102E10004C40E143C9B2240A10A809F0D1FCE143B7
:102E2000C9B210A809F0CCFC10A8ADF84C4009F0CC
:102E300097FC9DF84E30022B00F0D881BDF8483049
:102E40003BB34FF0000C61460127664605E028556C
:102E5000BDF84830013199421AD2CC08119D2A5D43
:102E600001F0070342FA03FE1EF0010F07FA03F018
:102E700008BF86F00106104307FA03F3002EE6D1DF
:102E800022EA03032B55BDF8483001319942E4D3BF
:102E90001E464046C8F800620BF012F9089B986B7A
:102EA00000283EF435AF42F2107303FB00F03B4BB9
:102EB00000F2E730A3FB0030800909F041FAFEF789
:102EC00027BF069911F802C0BCF12C0F08D0BCF145
:102ED000000F05D05A1C09F803C0D3B2013569E7C9
:102EE000002B3FF470AF00224FF0000109F80310EF
:102EF00010460DF12F070DF1370404E0D0B28342E4
:102F000004F8011F14D917F8011F2D29964602F164
:102F10000102F3D10EAB4FF0000203F80E20431C68
:102F2000DBB219F8032002F0070272B90023D5E7DB
:102F300019F800300EAA4FF000042D2B145418BFBE
:102F400001F00702EBD0002AF0D0BCFA8CF35B0949
:102F50000EA910A809F084FCE8E7089B0120503373
:102F600088F809024FF4807214A94046C8F810325C
:102F7000FEF7EEF94FF400634046C8F800320BF05C
:102F80009FF8FEF7C0BE0023FEF771BE089B9B6A48
:102F9000FEF76DBED4ED0008DCED0008D34D6210E5
:102FA00000235E0001360133A55DAD489D4204EB70
:102FB000060740F0558209F0F3F84FF080434FF4D4
:102FC0007A7E5A6A586AA74BA7490EFB00F0A3FB0A
:102FD0000030A64B400BA3FB003CA24BA3FB0232EC
:102FE0004FEA9C130EFB1303520BA14807F050FB52
:102FF000A04AA1499E4807F04BFB40F2F9239F4AA3
:103000009F499B4807F044FB9E49994807F040FBC5
:103010007B78A25D9C49964807F03AFB9B4994480F
:1030200007F036FB8E4806F0ABFA032D2B46B8D1DD
:10303000DBF8C422002A00F09381DBF8C822002AC2
:1030400000F08E81DBF8B42252B1DBF8B8223AB13D
:10305000DBF8BC2222B1DBF8C022002A7EF4BBAF31
:103060007F48804E09F09CF84FF080434FF47A750A
:103070005A6A5C6A7D4B7C497D4805FB04F4A6FBDB
:103080000474640BA3FB0473A6FB02629B0905FB9B
:103090001343520B07F0FCFA7D4A7749744807F056
:1030A000F7FA40F20933754A7549714807F0F0FAAA
:1030B00074496F4807F0ECFA76496D4807F0E8FA72
:1030C00072496B4807F0E4FA654806F059FA40F295
:1030D00009316A4809F054FCFFF72DB805238BF835
:1030E0004930FEF7B4BDDBF83450DFF8B081053766
:1030F00055FA87F7384620220BF0DAFA7B1CA946EE
:1031000005F1DF0A069319F8012F3B785340624A14
:10311000D55CFF2D23D0DFF890C1BE463846F92399
:10312000012101E01CF8013D1EF8012F2B44FE2B6C
:10313000C8BFFF3B013118F80330202983EA02039E
:1031400000F8013FEED11F22069938460BF04CFAE9
:10315000524B5B5DFB77D145D5D1FEF76FBD1F228A
:10316000069938460BF040FA0023FB77F3E7034655
:10317000FEF77DBD6379032B00F09880384809F095
:103180000FF8726A736A3849394807FB03F3A8FBE2
:1031900003435B0BA9FB0354A409A8FB025207FBE2
:1031A0001433520B07F074FA394A3349304807F0A8
:1031B0006FFA40F29D23314A31492D4807F068FAF1
:1031C00030492B4807F064FA3549294807F060FA7E
:1031D0002E49274807F05CFA214806F0D1F940F261
:1031E0009D21264809F0CCFBFEF7A5BF2D4FBDF869
:1031F000483000203860002B3FF44BAE04464FF0BF
:10320000010E06E00CF80590BDF8483001349C42F0
:1032100023D2E508DDF844C01CF8052004F00701BE
:103220004FEAD02989EA104942FA01F389EA0303F7
:1032300003F001030EFA01F949EA02090EFA01F15D
:1032400043EA4000002BDDD122EA01020CF8052000
:10325000BDF8483001349C42DBD33860F0E500BF54
:1032600020B701205917B7D150EA0008D34D62109A
:1032700028AC0120DCF1000864EA0008BBEA000881
:103280007CEA0008E0F1000800ED0008A8EA000868
:103290005CEA000854ED000874EE0008D0EF000866
:1032A0003CEB0008080800204BEA0008BBF80620A9
:1032B000B2F57F6F05D8BBF80830B3F57F6F40F2E9
:1032C0009380B848B84E08F06BFF4FF080434FF43E
:1032D0007A755A6A5C6AB54BB549B64805FB04F481
:1032E000A6FB0474640BA3FB0473A6FB02629B0998
:1032F00005FB1343520B07F0CBF9AF4AAF49AD487A
:1033000007F0C6F94FF42973AD4AAE49A94807F052
:10331000BFF9AD49A74807F0BBF9AC49A54807F08C
:10332000B7F9AB49A34807F0B3F99E4806F028F96E
:103330004FF42971A24809F023FBFEF7FCBE03EB12
:103340004303A44D5B0085FB0325DB17C3EB650539
:10335000ADB2B6E4002D08BF5B2CBFF47CAC84E4B6
:103360009048914E08F01CFF4FF080434FF47A755F
:103370005A6A5C6A8D4B8E498E4805FB04F4A6FBA5
:103380000474640BA3FB0473A6FB02629B0905FB98
:103390001343520B07F07CF9874A8849854807F0A8
:1033A00077F940F20233864A8649824807F070F97D
:1033B0008549804807F06CF987497E4807F068F92D
:1033C00083497C4807F064F9764806F0D9F840F262
:1033D00002317B4809F0D4FAFEF7ADBE2846AE466E
:1033E0002946AC46FEF710BC134313F00F0374D00C
:1033F0006C4808F0D5FE726A736A6D496D4807FB28
:1034000003F3A8FB03435B0BA9FB0354A409A8FB2C
:10341000025207FB1433520B07F03AF9664A674928
:10342000644807F035F940F2AB23654A65496148C5
:1034300007F02EF964495F4807F02AF967495D48AB
:1034400007F026F962495B4807F022F9554806F073
:1034500097F840F2AB215A4809F092FAFEF76BBE9A
:1034600008F09EFE4FF080434FF47A755A6A5C6A0A
:103470004D4E4E4B4E494F4805FB04F4A6FB0474D9
:10348000640BA3FB0473A6FB02629B0905FB1343B9
:10349000520B07F0FDF8484A4849464807F0F8F84B
:1034A00040F2F523464A4749424807F0F1F84649B9
:1034B000404807F0EDF84A493E4807F0E9F844492A
:1034C0003C4807F0E5F8374806F05AF840F2F52195
:1034D0003B4809F055FAFEF72EBE03EB43070637CB
:1034E0000133E65D2F489E424FF080494FF47A7ACF
:1034F00004EB07087AD108F053FED9F824C0D9F8B4
:103500002430294A2A492B480AFB03F3A2FB032350
:10351000264A5B0BA2FB032E234A4FEA9E1EA2FB08
:103520000CC20AFB1E33520B07F0B2F82D4A234996
:10353000204807F0ADF840F2BA23214A21491D483E
:1035400007F0A6F820491B4807F0A2F898F80100F8
:1035500098F80230E25D24494FEA101E00F00F0097
:103560008DE80140134807F093F81949114807F016
:103570008FF80C4806F004F8E35D012B98F8013051
:1035800000F0AF80112B6DD1032E3346A5D19BF8EF
:103590001430032B00F2BC80DFE813F09701C20166
:1035A0008E01B20020B701205917B7D1D34D621058
:1035B00050EA000828AC01205CEA000864EA000830
:1035C000BBEA00087CEA0008E0F1000864EB0008B0
:1035D000A8EA00086766666620ED0008A4EB00080C
:1035E000DCEB0008DCF1000814EC000808F0D8FD62
:1035F000D9F82420D9F82440B84EB94BB949BA4873
:10360000554605FB04F4A6FB0474640BA3FB04738A
:10361000A6FB02629B090AFB1343520B07F038F822
:10362000B24AB349B04807F033F840F2B623B14A82
:10363000B149AD4807F02CF8B049AB4807F028F87D
:10364000AF49A94807F024F8AE49A74807F020F889
:10365000AD4805F095FF40F2B621A64809F090F973
:10366000FEF769BDA8489D4C08F09AFDD9F82420C2
:10367000D9F824309B499C480AFB03F3A4FB03437D
:10368000974C5B0BA4FB0354944DA409A5FB025279
:103690000AFB1433520B06F0FBFF944A94499248FC
:1036A00006F0F6FF4FF43373924A93498E4806F0C2
:1036B000EFFF92498C4806F0EBFF98F80020934901
:1036C000894806F0E5FF8F49874806F0E1FF8E48FC
:1036D00005F056FF4FF43371864809F051F9FEF7B3
:1036E0002ABD113B112B00F2A980DFE803F0A0995D
:1036F000A7A7A7A7A7A7A7A7A7A7A7A7A7A79354C1
:10370000BBF80630BBF80850DB08ED0805FB03F5F5
:103710004FF080467C48DFF8C48108F041FD726AB2
:10372000736A70494FF47A77404607FB03F3A0FBB6
:1037300003036B485B0BA0FB03404446A4FB02421F
:10374000800907FB1033520B6748654C06F0A0FF59
:103750006F4A6749644806F09BFF40F2DA23654AE6
:103760006549614806F094FF64495F4806F090FFA0
:103770002A4668495C4806F08BFF62495A4806F0C1
:1037800087FF614805F0FCFEB5F5803F0AD2ABF833
:103790001850FEF71FBC002204238BF814208BF86E
:1037A0005730F1E6584808F0FBFC726A736A4D49DD
:1037B0004D4807FB03F3A8FB03535B0BA4FB035427
:1037C000A409A8FB025207FB1433520B06F060FF5A
:1037D000464A4749444806F05BFF40F2DE23454A2B
:1037E0004549414806F054FF44493F4806F050FF20
:1037F00049493D4806F04CFF42493B4806F048FF26
:10380000414805F0BDFE40F2DE213A4809F0B8F823
:10381000FEF791BC02238BF814308BF85730B3E6D7
:10382000012202238BF814208BF85730ACE60322D8
:1038300001238BF814208BF85730A5E63248274E29
:1038400008F0AEFC4FF080434FF47A755A6A5C6A18
:10385000234B2449244805FB04F4A6FB0474640BA1
:10386000A3FB0473A6FB02629B0905FB1343520BE7
:1038700006F00EFF1D4A1E491B4806F009FF40F2E4
:10388000C6231C4A1C49184806F002FF1B4916486B
:1038900006F0FEFE2149144806F0FAFE19491248C6
:1038A00006F0F6FE184805F06BFE40F2C6211148FE
:1038B00009F066F8FEF73FBCBBF80630BBF80850CD
:1038C000DB082D0905FB03F522E7BBF80630BBF842
:1038D00008501B092D0905FB03F519E75917B7D146
:1038E000D34D621050EA000828AC01205CEA0008C1
:1038F00064EA0008BBEA00087CEA0008E0F100087E
:10390000DCEB0008A8EA000820B7012088EC0008DA
:10391000DCF10008B8EC0008D0EC000854EC00081A
:10392000BBF80630BBF808501B09ED0805FB03F592
:10393000EEE600BF000000000000000000000000F4
:103940002DE98048B848B94CDDB008F029FC4FF0AB
:1039500080434FF47A705A6A596AB54B00FB01F103
:10396000A4FB0151490BA3FB0153A4FB02429B0999
:1039700000FB1313520BAF49AF4806F089FEAF4A64
:10398000AF49AD4806F084FE4C23AE4AAE49AA4882
:1039900006F07EFEAD49A84806F07AFEAC49A6487E
:1039A00006F076FEAB49A44806F072FE9E4805F08C
:1039B000E7FDA94AA949AA4B11601A68013203F12F
:1039C000100308D0A74AA7491268B3F1016F02F1AA
:1039D00001020A60F1D14FF080479348934E944C16
:1039E000DFF8748208F0DCFB7A6A7B6A91499248BE
:1039F0004FF47A7505FB03F3A6FB03E35B0BA4FB13
:103A000003CE4FEA9E1EA6FB02C205FB1E33520BDD
:103A100006F03EFE944A8A49874806F039FE5A234A
:103A2000884A8949844806F033FE8849824806F06E
:103A30002FFE8C4B8D491A687F4806F029FE854978
:103A40007D4806F025FE784805F09AFD37A808F075
:103A50006FFD844BD8F800201B68BDF8DC009DF892
:103A6000DE109080013BC3F30D03917103F5000359
:103A70009DF8DF10D1719DF8E0E09DF8E1009DF820
:103A8000E21082F808E003F540431B015072917286
:103A900093E802409868DB6893610023937313777F
:103AA00053770131724B5061C2F810E05E48309399
:103AB00001F08C8608F074FB7A6A7B6A5D496C4F72
:103AC00005FB03F3A6FB03035B0BA4FB0340800988
:103AD000A6FB024205FB1033520B574806F0D8FDF7
:103AE000564A5749544806F0D3FD8023554A564953
:103AF000514806F0CDFD55494F4806F0C9FDD8F8AC
:103B000000205C491469536992690592002CD4BF66
:103B10004FF0FF30012004FB00F081FB0056002B2A
:103B20004FEAE075C5EBA655D8BF4FF0FF32524EB5
:103B30000497C8BF012203FB02F206FB150581FBB7
:103B40000207D017C0EBA75006FB102081FB0362D1
:103B5000DB17C3EBA25281FB0461E3170292444AD4
:103B60000390C3EBA153009501924449324806F0FB
:103B70008FFD3849304806F08BFD2B4805F000FDDD
:103B8000354B1C461D6809F0A3F9E883256809F048
:103B9000B7F92884266809F0A3F8394B25685A88B4
:103BA000384B1B8803FB02F2C82303FB02F39B1470
:103BB000738404F085FBE884256804F0A9FB4FAA10
:103BC000A884D021772008F05BFD002801F0BC8597
:103BD0009DF83C31602B41F0B78544A809F010FBFB
:103BE00044A8256809F0CCF9A86244A8256804F027
:103BF000DFFBA88544A8246804F032FCE0854FF080
:103C000080435B6A229301232D934FF08045064841
:103C1000064F074CDFF87090DFF870A008F0C0FA8C
:103C20006A6A6B6A34E000BF20B701205917B7D128
:103C3000D34D621050EA000828AC0120DCF10008E6
:103C400064EA00085CF100087CEA0008E0F1000882
:103C500068F10008A8EA000830B701201008002029
:103C600000000C080C08002090F1000898F10008F2
:103C7000B4F100086BCA5F6B80969800E4F100080D
:103C800090B6012000080020000C02400014024001
:103C9000C049C1484FF47A7606FB03F3A7FB03E360
:103CA0005B0BA4FB03CE4FEA9E1EA7FB02C206FBE2
:103CB0001E33520B06F0ECFCB84AB949B64806F080
:103CC000E7FC9E23B74AB849B34806F0E1FCB74980
:103CD000B14806F0DDFCB649AF4806F0D9FC2D9B93
:103CE000B449AD4803F001022B9206F0D1FC2B9BA6
:103CF000B1485A002C9205F043FC2B9B2C9AAF49FB
:103D00001A446B6A0B602D9BAD49013B4FF00008D4
:103D100001EB021203F0010332923193CDF8F880E7
:103D2000CDF8FC80CDF80081CDF80481CDF8088174
:103D3000CDF80C8109F0E4F89F4808F031FA6A6A7E
:103D40006B6A9449944806FB03F3A7FB03E35B0B00
:103D5000A4FB03CE4FEA9E1EA7FB02C206FB1E3346
:103D6000520B06F095FC8D4A8D498B4806F090FC6D
:103D70004FF49F73934A8C49874806F089FC8B491E
:103D8000854806F085FC9049834806F081FC894906
:103D9000814806F07DFC884805F0F2FB4846012288
:103DA000802106F0C5F950460122082106F0C0F92D
:103DB00042461021854806F0BBF9484640F20242CF
:103DC000042106F0B5F940F202424FF480518048D8
:103DD00006F0AEF9784808F0E3F96A6A6B6A6D4953
:103DE0006D4806FB03F3A7FB03E35B0BA4FB03CEC9
:103DF0004FEA9E1EA7FB02C206FB1E33520B06F0C3
:103E000047FC664A6649644806F042FC4FF4A373D7
:103E10006C4A6549604806F03BFC64495E4806F020
:103E200037FC6C495C4806F033FC62495A4806F09E
:103E30002FFC614805F0A4FB6749684805F0F0F8DD
:103E40005D4808F0ADF96A6A6B6A5249524806FB50
:103E500003F3A7FB03E35B0BA4FB03CE4FEA9E1E19
:103E6000A7FB02C206FB1E33520B06F011FC4B4AA5
:103E70004B49494806F00CFC4FF4A573514A4A4996
:103E8000454806F005FC4949434806F001FC544901
:103E9000414806F0FDFB47493F4806F0F9FB46481C
:103EA00005F06EFB80220823A9F8182047F2305055
:103EB000AAF8183008F044FA3F4808F071F96A6A25
:103EC0006B6A3449344806FB03F3A7FB03E35B0B3F
:103ED000A4FB03CE4FEA9E1EA7FB02C206FB1E33C5
:103EE000520B06F0D5FB2D4A2D492B4806F0D0FB8E
:103EF0004FF4AA73334A2C49274806F0C9FB2B49D3
:103F0000254806F0C5FB3749234806F0C1FB29497F
:103F1000214806F0BDFB284805F032FB324B1868FB
:103F200059689A68DB680DF59E7EAEE80F002E4B4F
:103F3000186959699A694FF0FF33AEE807001C22EF
:103F40004FA92A4805F0F4F8404609F0F1F9002895
:103F500001F0A180184808F023F96A6A6B6A0D49DC
:103F600006FB03F3A7FB03035B0BA4FB03408009E1
:103F7000A7FB024206FB1033520B074806F088FBF2
:103F8000064A0749044806F083FB4FF4AB730D4A19
:103F900005492DE050EA000828AC0120DCF10008BA
:103FA00064EA00085CF100087CEA0008E0F100081F
:103FB000A4F20008A8EA000820B701202CAA0120DA
:103FC00010080020D4F20008DCF2000800040240CF
:103FD00000080240F0F2000810F10008A4B6012029
:103FE00008F300081CF300084CE70008D4B60120D1
:103FF0009C4806F04DFB9C499A4806F049FB9B49BA
:10400000984806F045FB9A49964806F041FB9948C6
:1040100005F0B6FA984C4FAD04F1200720686168AE
:10402000A268E3682E460FC61034BC423546F5D16F
:1040300020686168A2684FF0FF3307C52C224FA9A2
:104040008E4805F075F8242009F072F9002800F078
:10405000E48788488A4C08F0A3F84FF080434FF477
:104060007A705A6A596A874B00FB01F1A4FB01512F
:10407000490BA3FB0153A4FB02429B0900FB131352
:10408000520B8149774806F003FB804A8049754806
:1040900006F0FEFA40F25D137E4A7F49714806F051
:1040A000F7FA71496F4806F0F3FA7C496D4806F05B
:1040B000EFFA6F496B4806F0EBFA6E4805F060FACC
:1040C000774C4FAE04F1300720686168A268E3685E
:1040D00035460FC51034BC422E46F5D12068286005
:1040E0004FF0FF3334224FA9644805F021F83B20FC
:1040F00009F01EF9002800F005875E48604C08F0C2
:104100004FF84FF080434FF47A705A6A596A5D4B0A
:1041100000FB01F1A4FB0151490BA3FB0153A4FBDC
:1041200002429B0900FB1313520B57494D4806F0FE
:10413000AFFA564A56494B4806F0AAFA40F26313C2
:10414000544A5549474806F0A3FA4749454806F0FE
:104150009FFA5449434806F09BFA4549414806F006
:1041600097FA444805F00CFA4F4B186859684FAB62
:1041700003C3002121208DF843118DF844019124BF
:104180004FF0FF330A224FA93C488DF8454104F017
:10419000CFFF112009F0CCF8002840F0B487354853
:1041A000374C07F0FDFF4FF080434FF47A705A6AA6
:1041B000596A344B00FB01F1A4FB0151490BA3FBED
:1041C0000153A4FB02429B0900FB1313520B2E491F
:1041D000244806F05DFA354A2D49224806F058FA7F
:1041E00040F26B132B4A2C491E4806F051FA1E4927
:1041F0001C4806F04DFA2E491A4806F049FA1C49A7
:10420000184806F045FA1B4805F0BAF940F26B1160
:10421000204808F0B5FB00234FF08044DFF860B081
:10422000244D2A932093219323931F46289325936B
:104230002493269327932993A24608F061FE1E4BF0
:10424000186859684FAB03C308224FF0FF334FA9DA
:104250000A4804F06DFF666A06F5434650364FF093
:10426000000839E028AC0120E0F1000834F3000830
:10427000A8EA000820B7012068E70008D4B60120AA
:104280005917B7D1D34D621050EA0008DCF100088D
:1042900064EA0008D4F200087CEA000878F3000819
:1042A00094E70008BCF30008C8E700085CEA0008CF
:1042B00020F4000874080020D4E700089E4228D3A8
:1042C000616AB648711A05F0C3F8C0B2A0F1B5082A
:1042D000B8FA88F84FEA5818636A9E4219D3616A9F
:1042E000AE48711A05F0B4F8C0B2B8F1000FEDD0C5
:1042F0006228636AE2D19E420BD3616AA748711AB1
:1043000005F0A6F8C0B2012800F05982636A9E4207
:10431000D6D2A34807F044FF626A606AA1494FF40D
:104320007A7606FB00F0ABFB00309F4B400BA3FB03
:1043300000E3ABFB02E29B0906FB1303520B9B4815
:1043400006F0A6F99A4A9B49984806F0A1F9A323DA
:10435000994A9A49954806F09BF99949934806F07D
:1043600097F99849914806F093F997498F4806F0D4
:104370008FF98B4805F004F9032F00F01083229B7E
:10438000626A03F58C1303F543639A427FF655AFD7
:10439000032F00F0F58582488C4C07F001FF4FF0A9
:1043A00080434FF47A705A6A596A7F4B00FB01F1DF
:1043B000A4FB0151490BA3FB0153A4FB02429B093F
:1043C00000FB1313520B7749784806F061F9804AD5
:1043D0007849764806F05CF9D7237E4A77497348D6
:1043E00006F056F97649714806F052F97A496F4855
:1043F00006F04EF974496D4806F04AF9684805F030
:10440000BFF837A808F094F8319B2B99BDF8DC5021
:104410009DF8DE405A001A44704B03EB02122C9BAD
:1044200010690B446D4901EB03139DF8DF1018610F
:104430009DF8E0009D809C719DF8E1509DF8E24060
:10444000D9711872516992695D7200209C7259612C
:104450009A61987318772C9B2B9A2D99604D9C1814
:1044600024015E4A4FF0804311515A6A574902F5C0
:104470001C53229A0F339B1A584A1444A1FB03235E
:104480005B0B637708F024FDE08308F039FD20849E
:1044900008F026FC534B29685A88534B1B8803FBB2
:1044A00002F2C82303FB02F39B14638411B903F0E7
:1044B00007FF29684D4B2B9A1B6893FBF1F12C9B4E
:1044C0004B4C1344454A02EB0313494AD9844749EC
:1044D000126800230B6042490B6012B903F018FF09
:1044E0002268444B2B991B6893FBF2F32C9A5418C7
:1044F0003A4A02EB04140025A3843E4B1D603C4B5A
:104500004FAAD02177201D6008F0BAF8002800F0EB
:104510003C859DF83C31602B40F037854FA808F072
:104520006FFE4FA808F02CFDA0624FA803F040FFDB
:10453000A0854FA803F094FFE0854FF0804818480D
:10454000224C194E07F02CFED8F82420D8F824303D
:10455000144916484FF47A7505FB03F3A4FB03E3F3
:104560005B0BA6FB03CE4FEA9E1EA4FB024205FB9B
:104570001E33520B06F08CF80D4A0E490B4806F01C
:1045800087F840F21313134A0C49084806F080F8E4
:104590000B49064806F07CF82C9B2DE0B0B60120B4
:1045A00020B7012050EA0008D34D621028AC01204A
:1045B000DCF1000864EA0008D4F200087CEA000894
:1045C000E0F1000844F40008A8EA00085917B7D140
:1045D00090F100085CF10008CCF5000810080020FC
:1045E00068AA012090B60120000800206CAA0120D2
:1045F00060AA012064AA01202B9ADFF860E29A18D1
:104600008B4B12019C189B58B4F92E0020903098C7
:10461000B4F82C90B4F820A024931890854B21690D
:10462000B4F81EB0A3FB09C263690029D4BF4FF0E0
:10463000FF310121002B638C0F902193A36A2098F6
:104640009C467C4B4FEAD202A3FB0CC38EFB00CEF0
:1046500020691D9202EB8202A9EB420292B21E92E5
:10466000A6FB0A924FEA921905FB19AA00FB01F179
:104670001FFA8AF2209811924FEAD3031993A26A83
:104680004FEAE07C219803EB8303A2EB4302A6FBF5
:104690000BA38246A6FB0AA64FEA96164FEA931A88
:1046A00005FB1ABB034605FB160560691A92D4BFC9
:1046B0004FF0FF33012300FB03F32098CCEB6E1C7B
:1046C0006422DFF89CE102FB1C02ADB20FFA8CF011
:1046D00012B215951C921B908EFB0152C817564DB5
:1046E000C0EBA25205FB1212B4F92610CDF840908F
:1046F000B4F9240016901FFA8BFBCDF84CB0CDF81E
:1047000048A014961791E179607FB4F804B094F84A
:1047100006A0667A8EFB039C94F808900892DA173C
:104720000E90C2EBAC52606905FB12352369226919
:104730008EFB03C384468EFB0CCED217C017C2EB90
:10474000A35CC0EBAE50237F059102913099249A6F
:10475000CDF81CC00C9106910A950496CDF80C90EA
:10476000CDF804A0CDF800B009900D93A3690B9388
:104770003249334B334805F08BFF3349314805F05C
:1047800087FF324804F0FCFE314BD8F824201B6828
:104790009A4204F1040502D3032F00F0ED842D4B5F
:1047A0002298329A1A602D9B00F59211013301F57F
:1047B00078612D9307F08CFD2290FFF726BA636A8B
:1047C0009E42FFF4A6AD616A2348711A04F040FED0
:1047D000C0B207287FF49AADDAF824309E42FFF485
:1047E00098ADDAF824101C48711A04F031FEDAF89A
:1047F0002430B3425FFA80F83FF68BADDAF824102C
:104800001548711A04F024FEDAF82430000200F48E
:104810007F409E4240EA0808FFF47BAD616A0E4883
:10482000711A04F015FE4FF00009C2B223E000BF78
:1048300010080020CDCCCCCC80969800F4F5000870
:10484000B4F1000828AC0120A8EA000820B7012034
:104850007008002030B70120B0B601201F85EB5151
:104860006BCA5F6B636AB3423FF653AD616A711AFC
:1048700004F0EEFDC2B2BD4BBD4803F8092009F1BA
:1048800001091FFA89F9C845ECD1B8F1000F3FF4CE
:1048900040ADB84807F084FC626A666AB649B7481A
:1048A0004FF47A7707FB06F6ABFB0636B44B760B74
:1048B000A3FB06E3ABFB02E29B0907FB1363520B6E
:1048C00005F0E6FEAF4AB049AC4805F0E1FEA7238B
:1048D000AE4AAF49A94805F0DBFEAE49A74805F04E
:1048E000D7FEAD49A54805F0D3FEAC49A34805F075
:1048F000CFFEA04804F044FE95F82600A97F95F865
:10490000259095F81DC095F824302E7EAA7E21961C
:104910000904000495F8278095F819E06E7920962F
:1049200000EB092001EB0C2CE97D2391184421991F
:10493000934B2E792F7F95F81F90120400EB086897
:1049400002EB0E2283FB08300A44EB7E209902EB37
:10495000036306EB01262093B3B22993AB79279327
:10496000EB792693BC442B7A24934FEAE8786B7A50
:104970002F7D2593C8EBA0180CEB09612191B8F1AC
:10498000000FAB7A289340F38B824CF25030804575
:104990004346A8BF0346032F2A937FF4F0AC239B22
:1049A000042B7FF6ECAC4FF0804572487C4EDFF86C
:1049B000D0A107F0F5FB6A6A6B6A6F496F484FF444
:1049C0007A7404FB03F3A6FB03735B0BAAFB037E61
:1049D0004FEA9E1EA6FB027204FB1E33520B05F02B
:1049E00057FE684A6849654805F052FE40F2751363
:1049F000664A6749614805F04BFE66495F4805F025
:104A000047FE68495D4805F043FE64495B4805F090
:104A10003FFE584804F0B4FD634B644808225A83B3
:104A20008021002205F084FB002204215F4805F06C
:104A30007FFB00224FF480515D4805F079FB4D4823
:104A400007F0AEFB6A6A6B6A4B494C4804FB03F300
:104A5000A6FB03735B0BAAFB037E4FEA9E1EA6FB1D
:104A6000027204FB1E33520B05F012FE454A464902
:104A7000424805F00DFEBE234E4A45493F4805F029
:104A800007FE44493D4805F003FE4B493B4805F00D
:104A9000FFFD4249394805F0FBFD364804F070FD42
:104AA000344807F07DFB6A6A6B6A3349334804FB7C
:104AB00003F3A6FB03735B0BAAFB037E4FEA9E1E68
:104AC000A6FB027204FB1E33520B05F0E1FD2D4ADA
:104AD0002D492A4805F0DCFDBF23364A2C492748DA
:104AE00005F0D6FD2B49254805F0D2FD219F2099E0
:104AF0002A98324B0E90002FD4BF4FF0FF3C4FF05E
:104B0000010C0029D4BF4FF0FF30012007FB0CFC43
:104B100001FB00F0DFF8A8E0DDF8A49083FB0C8136
:104B20004FEAEC72C2EBA1510EFB11C183FB008274
:104B30004FEAE07CCCEBA2520EFB1200219A0991C5
:104B40004FEAE27E83FB077C209A209F0C9083FB38
:104B50000773D217C2EBA353309A0D920A920792B1
:104B60000592259A0392249A2CE000BF7408002035
:104B7000B0B6012020B7012050EA000828AC01207F
:104B8000D34D6210DCF1000864EA0008D4F200089A
:104B90007CEA0008E0F1000860F40008A8EA0008D8
:104BA0005917B7D178F4000800140240000C0240F5
:104BB000000802405CF100088CF400086BCA5F6BCF
:104BC000809698000292269A239F0192279A069730
:104BD000CEEBAC5C289F00920B93B34AB349B44828
:104BE000CDF820C04B46049705F052FDB149B048BE
:104BF00005F04EFDB04804F0C3FC2599AF4BBDF85D
:104C00000081AD484EF6602202FB01F2249903FBBD
:104C1000012304FB0733984407F0C2FA6A6A6B6AFF
:104C2000A749A34804FB03F3A6FB03735B0BAAFB92
:104C3000037E4FEA9E1EA6FB027204FB1E33520B3C
:104C400005F026FD9F4AA049994805F021FD632300
:104C50009E4A9F49964805F01BFD9E49944805F0E1
:104C600017FD9D49924805F013FD9249904805F0C3
:104C70000FFD914804F084FC4FA807F059FC8E48C2
:104C800007F08EFA6A6A6B6A8D49894804FB03F360
:104C9000A6FB03535B0BAAFB0375A6FB0262AD09DF
:104CA00004FB1533520B05F0F3FC864A8649804815
:104CB0008A4F05F0EDFC6423844A85497C4805F061
:104CC000E7FC84497A4805F0E3FCBDF844619DF8AF
:104CD00042519DF841419DF840019DF83F119DF8DA
:104CE0003E21BDF83C310596049503940290019154
:104CF00000927B497B4A6E487B4E7C4C7C4D05F094
:104D0000C7FC6C496A4805F0C3FC6B4804F038FCEA
:104D1000269A78489DF83DE128F078438AFB0313F2
:104D20009B0902F01F08279AA6FB03C1A0FB03C042
:104D3000C90802F00F023392A7FB01C24FEA501CD0
:104D4000A4FB0304A5FB0350A5093195A6FB08A508
:104D50004FEAD50B9208319D674C02EB4202A7FB4C
:104D600005A7A1EB4202339D349701EB8101A4FB1F
:104D700003A4A3EB4101C00B41EA0050E70AA6FBE4
:104D800005A4E40840EA02123392A6FB0C02A0003C
:104D90004B462044D208303334993597A5EB400078
:104DA00002EB8202339DDFB2ACEB42020BEB8B03D2
:104DB000A8EB4303890845EA0228319D4FEA5E12B9
:104DC00001EB410143EA4233A6FB07C2A5EB410CCC
:104DD000359D43EA0020D2082B4640EA0434A6FB66
:104DE0000331A6FB0203C90802EB8200DB0844EA98
:104DF0000B14A7EB400001EB810103EB8303A5EB50
:104E0000410148EA0C36A2EB430344EA004446EA77
:104E1000014644EA0355EFF311841CB907F0E8FAA0
:104E20009DF83DE1354B1B68DA6842F08002DA609C
:104E3000DA685706FCD51E605D609A68CEF3001EE6
:104E400042EA8E429A60DA6822F08002DA600CB997
:104E500007F0E6FA2B9A2C9BBDF8A4101344284ABD
:104E600002EB0313012299809DF89C1099719DF823
:104E70009810D9719DF8901019729DF8941059727C
:104E80009DF8A010997221991961209959612A9968
:104E900099619DF88C1019779A730327FFF7DBBA95
:104EA00001232A93FFF768BAB4F10008B4F40008AC
:104EB00028AC0120A8EA000820B7012080EE3600C7
:104EC00050EA0008DCF1000864EA000870F5000808
:104ED0007CEA0008E0F1000878F50008ABAAAAAA6D
:104EE00094F5000890F50008CDCCCCCCB5814E1BD4
:104EF000D55204E989888888C5B3A2917C9901209C
:104F000010080020BA48BB4C07F04AF94FF0804324
:104F10004FF47A705A6A596AB74B00FB01F1A4FB4F
:104F20000151490BA3FB0153A4FB02429B0900FB67
:104F30001313520BB149B24805F0AAFBB14AB2496A
:104F4000AF4805F0A5FB40F26513B04AB049AC4844
:104F500005F09EFBAF49AA4805F09AFBAE49A84868
:104F600005F096FBAD49A64805F092FBA04804F079
:104F700007FB40F26511A54807F002FDFFF7F4B802
:104F8000239B042B7FF607AA0DE59948994C07F05F
:104F900007F94FF080434FF47A705A6A596A964B7A
:104FA00000FB01F1A4FB0151490BA3FB0153A4FB3E
:104FB00002429B0900FB1313520B9049904805F0E5
:104FC00067FB904A90498E4805F062FB4FF480736E
:104FD000934A8F498A4805F05BFB8E49884805F063
:104FE00057FB9049864805F053FB8C49844805F0EF
:104FF0004FFB7F4804F0C4FA4FF48071884807F0F3
:10500000BFFC2B9A2C9B1344874A02EB031300220C
:105010009A629A85DA85FFF790BA7548754C07F061
:10502000BFF84FF080434FF47A705A6A596A724B56
:1050300000FB01F1A4FB0151490BA3FB0153A4FBAD
:1050400002429B0900FB1313520B6C496C4805F09C
:105050001FFB6C4A6C496A4805F01AFB40F25F136B
:105060006A4A6B49664805F013FB6A49644805F0D3
:105070000FFB6E49624805F00BFB6849604805F07C
:1050800007FB5B4804F07CFA40F25F115F4807F0D1
:1050900077FCFFF715B8564807F082F86A6A686A25
:1050A000564906FB00F0A7FB0030400BA4FB003480
:1050B000A309A7FB024206FB1303520B504805F05D
:1050C000E7FA504A50494E4805F0E2FA4FF4AC7303
:1050D0004E4A4F494A4805F0DBFA4E49484805F028
:1050E000D7FA5349464805F0D3FA4C49444805F0ED
:1050F000CFFA3F4804F044FA4FF4AC71434807F04C
:105100003FFCFEF787BF3A483A4C07F049F84FF0AA
:1051100080434FF47A705A6A596A374B00FB01F1A9
:10512000A4FB0151490BA3FB0153A4FB02429B09C1
:1051300000FB1313520B3149314805F0A9FA3D4ADF
:1051400031492F4805F0A4FA40F269132F4A30493B
:105150002B4805F09DFA2F49294805F099FA364960
:10516000274805F095FA2D49254805F091FA204881
:1051700004F006FAFFF74FB8239B042B7FF60FAB22
:10518000227A617AEE78AF79A4884FF4616303FBE9
:1051900002F23C20D317C0FB81232848A9782D892F
:1051A000013E00FB06F64FF00008BA1848EB030377
:1051B000971943EBE678A60701F1FF3140F0B08282
:1051C0001F4B33F8111000FB01F03A1848EBE07365
:1051D00040F2B27E74454AD903A1D1E90001194ECB
:1051E000002739E0AFF300808033E10100000000C8
:1051F00020B701205917B7D1D34D621050EA0008EB
:1052000028AC01205CEA000864EA0008D4F2000837
:105210007CEA0008E0F10008DCF30008A8EA0008D6
:105220005CF100087CF200081008002098F30008E8
:1052300054F30008DCF1000800F40008805101007C
:1052400038F100080085E2010EF1010E92191FFAF3
:105250008EFE7B41A6450AD01EF0030FF4D00EF15E
:10526000010E12181FFA8EFE4B41A645F4D19C0088
:1052700044EA927190004C0144EAD0642F944401B6
:105280002E94DDE92E67361A30462C9C2B9E924BCD
:105290003444861803EB0412F40013693B9326464A
:1052A000946952693C928D4A7019002CA8BFA3B230
:1052B00014683A9004F5000404F54044B8BF002394
:1052C00024013D93C4F31003002B00F001818448B6
:1052D000844D06F065FF4FF080434FF47A705A6AB0
:1052E000596A814B00FB01F1A5FB0161490BA3FB4E
:1052F0000163A5FB02529B0900FB1313520B7B4970
:105300007B4805F0C5F97B4A7B49794805F0C0F92F
:1053100036237A4A7A49764805F0BAF979497448C9
:1053200005F0B6F922467849714805F0B1F9774998
:105330006F4805F0ADF96A4804F022F9204602F002
:105340001FFC18B1013810F0FF00FBD1704B1A6937
:10535000002A6EDB6E4AD1686D4BC903FBD41A6913
:1053600022F480721A611A691A611E460DF1E70073
:10537000651E1A6910F8011F42F001021A6105F852
:10538000011FDA686249D203FBD4326922F00102BC
:1053900032610DF1F7028242EBD10B6943F0004319
:1053A0000B613AAB04F1100201E0944249D020783D
:1053B00013F8011B884204F10104F6D04848494C17
:1053C00006F0EEFE4FF080424FF47A73506A526A54
:1053D000454903FB02F2A4FB0252550BA1FB052138
:1053E0008909A4FB000203FB1153520B3F494048BB
:1053F00005F04EF9474A40493D4805F049F93F2339
:105400003E4A3F493A4805F043F93E49384805F0DD
:105410003FF94149364805F03BF93C49344805F02D
:1054200037F92F4804F0ACF83F21344807F0A8FAC8
:105430003DE03A493A4A59605A601B69002B89DAC3
:10544000AFE72748274C06F0ABFE4FF080424FF401
:105450007A73506A526A244903FB02F2A4FB025297
:10546000550BA1FB05218909A4FB000203FB115385
:10547000520B1E491E4805F00BF91E4A1E491C48D6
:1054800005F006F93D231D4A1D49194805F000F9AC
:105490001C49174805F0FCF82249154805F0F8F8B2
:1054A0001A49134805F0F4F80D4804F069F80B4B5D
:1054B0000A491A681C4B01321B68C2F30D0203F53E
:1054C000F4130A60184A03F590631360FFF767B995
:1054D00004F5003223462CE0100800200C080020C0
:1054E00020B701205917B7D1D34D621050EA0008F8
:1054F00028AC0120DCF1000864EA00085CF1000837
:105500007CEA0008E0F1000848F70008A8EA000873
:10551000003C02405CEA00082CF7000823016745C4
:10552000AB89EFCD14F70008700800209A423FF4D1
:10553000CEAE1978FF2903F10103F7D0B848B94E70
:10554000B94DDFF8288306F02BFE4FF080434FF46F
:105550007A705A6A596A00FB01F1A6FB0131B34B1C
:10556000490BA3FB0173A6FB02629B0900FB13130B
:10557000520BAF49AF48B04F05F08AF8AF4AB04977
:10558000AC4805F085F83023AE4AAF49A94805F08C
:105590007FF8AE49A74805F07BF82246AC49A548FC
:1055A00005F076F8AB49A34805F072F8A3469C488D
:1055B00003F0E6FF584602F0E3FA2B69002B4FF4A4
:1055C00000368246C0F2A480EA68974BD203FBD42F
:1055D0001A6922F480721A611A691A611A691AF03A
:1055E000010F22F078021A6103D01A6942F0080212
:1055F0001A611AF0020F03D02B6943F010032B61DC
:105600001AF0040F03D02B6943F020032B611AF02A
:10561000080F03D02B6943F040032B612B6943F043
:1056200002032B612B6943F480332B61EA687E4BC4
:10563000D003FBD41A6922F002021A611A6942F0FF
:1056400000421A61BAF1000F79D0D3464FF00069D9
:105650000BF1FF3B5FFA8BFBBBF1030F58460AD9F6
:1056600008F01EFD0BF1FF3B5FFA8BFBBBF1030F54
:1056700081445846F4D809F58049BBF1000FE7D1C1
:10568000BAF1030F58D9504608F00AFD78B199F8DD
:105690000030FF2B7FF41BAE484409F1010904E000
:1056A00019F8013BFF2B7FF412AE4845F8D10AF1FF
:1056B000010919F0FF094FF0006B17D009F1FF390C
:1056C0005FFA89F9B9F1030F48460AD908F0E8FCF6
:1056D00009F1FF395FFA89F9B9F1030F83444846AC
:1056E000F4D80BF5804BB9F1000FE7D1BAF1030FF5
:1056F0001FD9504608F0D4FC86427FF6E8AD361A32
:10570000584602F03DFA2B69002B8246BFF65CAF8B
:10571000C5F804806F602B69002BBFF655AFD6E546
:105720004D4B33F8111000FB01F03A1848EBE073D1
:105730004EE54FF48040DFE74FF48040A7E74FF09D
:1057400000694FF48040A2E73548364C06F028FD4A
:105750004FF080434FF47A705A6A596A334B00FB1A
:1057600001F1A4FB0151490BA3FB0153A4FB02422D
:105770009B0900FB1313520B2D492E4804F088FFA0
:10578000364A2F492B4804F083FF95232D4A2E4992
:10579000284804F07DFF2D49264804F079FF304960
:1057A000244804F075FF2B49224804F071FF1C487F
:1057B00003F0E6FE9521234807F0E2F8294B1B6829
:1057C00000229A629A85DA85FEF719BA06F0E8FC9B
:1057D0007A6A7B6A05FB03F3A6FB03135B0BA4FB4E
:1057E0000301A6FB0202890905FB1133520B104984
:1057F000104804F04DFF114A11490E4804F048FFCB
:105800008223104A10490B4804F042FF0F4909480F
:1058100004F03EFF1449074804F03AFFFEF7A9B927
:1058200020B701205917B7D1003C0240D34D621078
:1058300050EA000828AC0120AB89EFCDDCF100086C
:1058400064EA00085CF100087CEA0008E0F1000866
:10585000FCF60008A8EA00081CF100085CEA000851
:105860007CF2000830B7012058F200082301674598
:10587000204B214C1A694FF0FF3100222DE980485E
:1058800019611A61586959615A61186A60F080504B
:1058900018621A62586A59625A62196C41F0805152
:1058A0001964216841F480712160196F01F440711D
:1058B000B1F5007F8FB003D04FF4803119671A67BC
:1058C0000C4B1A6F110407D41A6F42F400721A6756
:1058D0001A6F42F400421A67074E084F7168084A6F
:1058E0000848094D002421F40071716023462146C7
:1058F0003C600DE0003802400070004074990120C7
:10590000B4F7000810600240D098012052F80C0C47
:10591000016045F833100133102B02F10C024FF0F7
:105920000004F3D1A34EA448A44DA54AA54BDFF82B
:1059300044E3A54FDFF840834FF0FF31B160F160E1
:105940008160C160286BA1496FEA50206FEA402056
:105950002863286D6FEA50206FEA40202865A5F57E
:105960007C15A5F5A0659A4854609560D0604FF607
:10597000FF759848556110629748506297481060CB
:105980004FF440725A609648964A98604FF05D4CCA
:10599000DA60954A5D61C3F820C05A62934A1A6082
:1059A000934BCEF80440CEF80830924BCEF80C3032
:1059B000914BCEF81450CEF820C0CEF824308F4B47
:1059C000CEF800308E4B4C604FF0553E8B604FF45C
:1059D0000063C1F80CE04D610B624FF0A8434C62CC
:1059E0000B604FF47C537C60BB60864BFB60864B46
:1059F0007D61A6F598463B62844A7C624FF4285349
:105A00003B608348834F746001F5A051B460F76038
:105A1000756134627462346054609460C2F80CE062
:105A2000556114625462146003227B4B44608260AF
:105A30007A4AC26045610462446204604C608C60D2
:105A4000C1F80CE04D610C624C620C60A1F5803134
:105A50009962734F7349196301256021724E1D705D
:105A60005C609C60DC601C615C611C6287F81213E6
:105A70004FF48021C7F880116C4A396003F1180196
:105A8000DE629961D961A6F15401694BD162536319
:105A9000684F546102F10C03A6F148011163D36011
:105AA00013614046644915705460D46104F0B8FC39
:105AB000624B6349C8F87430384604F0B1FC614A5F
:105AC0006149624B62487967A6F16C07A6F16001F3
:105AD00017625162D06102F10C01DFF8A0E15D4F65
